{
  "contractName": "DINRegistryUtils",
  "abi": [
    {
      "constant": false,
      "inputs": [
        {
          "name": "resolver",
          "type": "address"
        },
        {
          "name": "amount",
          "type": "uint256"
        }
      ],
      "name": "selfRegisterDINsWithResolver",
      "outputs": [],
      "payable": false,
      "stateMutability": "nonpayable",
      "type": "function"
    },
    {
      "constant": false,
      "inputs": [
        {
          "name": "owner",
          "type": "address"
        },
        {
          "name": "resolver",
          "type": "address"
        },
        {
          "name": "amount",
          "type": "uint256"
        }
      ],
      "name": "registerDINsWithResolver",
      "outputs": [],
      "payable": false,
      "stateMutability": "nonpayable",
      "type": "function"
    },
    {
      "constant": false,
      "inputs": [
        {
          "name": "amount",
          "type": "uint256"
        }
      ],
      "name": "selfRegisterDINs",
      "outputs": [],
      "payable": false,
      "stateMutability": "nonpayable",
      "type": "function"
    },
    {
      "constant": false,
      "inputs": [
        {
          "name": "owner",
          "type": "address"
        },
        {
          "name": "amount",
          "type": "uint256"
        }
      ],
      "name": "registerDINs",
      "outputs": [],
      "payable": false,
      "stateMutability": "nonpayable",
      "type": "function"
    },
    {
      "inputs": [
        {
          "name": "_registry",
          "type": "address"
        }
      ],
      "payable": false,
      "stateMutability": "nonpayable",
      "type": "constructor"
    }
  ],
  "bytecode": "0x6060604052341561000f57600080fd5b60405160208061046783398101604052808051906020019091905050806000806101000a81548173ffffffffffffffffffffffffffffffffffffffff021916908373ffffffffffffffffffffffffffffffffffffffff160217905550506103ec8061007b6000396000f300606060405260043610610062576000357c0100000000000000000000000000000000000000000000000000000000900463ffffffff1680632b12424514610067578063b59ca0f6146100a9578063c07dc8901461010a578063f5bf7e3d1461012d575b600080fd5b341561007257600080fd5b6100a7600480803573ffffffffffffffffffffffffffffffffffffffff1690602001909190803590602001909190505061016f565b005b34156100b457600080fd5b610108600480803573ffffffffffffffffffffffffffffffffffffffff1690602001909190803573ffffffffffffffffffffffffffffffffffffffff1690602001909190803590602001909190505061017e565b005b341561011557600080fd5b61012b60048080359060200190919050506102b3565b005b341561013857600080fd5b61016d600480803573ffffffffffffffffffffffffffffffffffffffff169060200190919080359060200190919050506102c0565b005b61017a33838361017e565b5050565b60008090505b818110156102ad576000809054906101000a900473ffffffffffffffffffffffffffffffffffffffff1673ffffffffffffffffffffffffffffffffffffffff16635849cf7785856000604051602001526040518363ffffffff167c0100000000000000000000000000000000000000000000000000000000028152600401808373ffffffffffffffffffffffffffffffffffffffff1673ffffffffffffffffffffffffffffffffffffffff1681526020018273ffffffffffffffffffffffffffffffffffffffff1673ffffffffffffffffffffffffffffffffffffffff16815260200192505050602060405180830381600087803b151561028457600080fd5b6102c65a03f1151561029557600080fd5b50505060405180519050508080600101915050610184565b50505050565b6102bd33826102c0565b50565b60008090505b818110156103bb576000809054906101000a900473ffffffffffffffffffffffffffffffffffffffff1673ffffffffffffffffffffffffffffffffffffffff1663873f9a6a846000604051602001526040518263ffffffff167c0100000000000000000000000000000000000000000000000000000000028152600401808273ffffffffffffffffffffffffffffffffffffffff1673ffffffffffffffffffffffffffffffffffffffff168152602001915050602060405180830381600087803b151561039257600080fd5b6102c65a03f115156103a357600080fd5b505050604051805190505080806001019150506102c6565b5050505600a165627a7a72305820858af72795b02571a4a606aff81c9ef6f908eb7c8293f974b55b322c5bc71dd60029",
  "source": "pragma solidity ^0.4.11;\n\nimport \"./DINRegistry.sol\";\n\n/** @title Convenience methods for DINRegistry */\ncontract DINRegistryUtils {\n\n    DINRegistry registry;\n\n    // Constructor\n    function DINRegistryUtils(DINRegistry _registry) public {\n        registry = _registry;\n    }\n\n    /**\n     * @dev Self-register multiple new DINs.\n     * @param amount The amount of DINs to register.\n     */\n    function selfRegisterDINs(uint256 amount) public {\n        registerDINs(msg.sender, amount);\n    }\n\n    /**\n     * @dev Self-register multiple new DINs and set the resolver.\n     * @param resolver The address of the resolver.\n     * @param amount The amount of DINs to register.\n     */\n    function selfRegisterDINsWithResolver(address resolver, uint256 amount) public {\n        registerDINsWithResolver(msg.sender, resolver, amount);\n    }\n\n    /**\n     * @dev Register multiple new DINs.\n     * @param owner The account that will own the DINs.\n     * @param amount The amount of DINs to register.\n     */\n    function registerDINs(address owner, uint256 amount) public {\n        for (uint i = 0; i < amount; i++) {\n            registry.registerDIN(owner);\n        }\n    }\n\n    /**\n     * @dev Register multiple new DINs and set the resolver.\n     * @param owner The account that will own the DINs.\n     * @param resolver The address of the resolver.\n     * @param amount The amount of DINs to register.\n     */\n    function registerDINsWithResolver(address owner, address resolver, uint256 amount) public {\n        for (uint i = 0; i < amount; i++) {\n            registry.registerDINWithResolver(owner, resolver);\n        }\n    }\n\n}",
  "sourcePath": "/Users/richardmcateer/Developer/Ethereum/kiosk/din/contracts/DINRegistryUtils.sol",
  "compiler": {
    "name": "solc",
    "version": "0.4.18+commit.9cf6e910.Emscripten.clang"
  },
  "schemaVersion": "1.0.1",
  "updatedAt": "2017-12-26T04:30:50.924Z"
}